:020000040800F2
:10000000A0190020990100087F1A0008191800089B
:100010007D1A00083B030008DB1F000800000000F9
:1000200000000000000000000000000001010008C6
:10003000970300080000000045010008B91A0008F5
:10004000B3010008B3010008B3010008B3010008C0
:10005000B3010008B3010008B3010008B3010008B0
:10006000B3010008B3010008B3010008B3010008A0
:100070003D03000849030008550300086103000818
:10008000B3010008B3010008B3010008B301000880
:10009000B3010008B3010008B3010008B301000870
:1000A000B30100087D1B0008B3010008B30100087C
:1000B000B3010008B3010008B3010008B301000850
:1000C000B3010008B3010008B3010008B301000840
:1000D000B3010008651F0008B30100087D1F000878
:1000E000B3010008B3010008B3010008DFF80CD029
:1000F00000F076F80048004775220008A01900209B
:10010000224B19680868B0E8F00F80F30988BFF344
:100110006F8F4FF0000080F311884EF00D0E704786
:100120000000000006480068006880F3088862B696
:1001300061B6BFF34F8FBFF36F8F00DF00BF00BF0B
:1001400008ED00E0EFF30980BFF36F8F0F4B1A68E3
:1001500020E9F00F106008B54FF0500080F31188CF
:10016000BFF34F8FBFF36F8F02F0B8FC4FF000006A
:1001700080F31188BDE8084019680868B0E8F00FFE
:1001800080F30988BFF36F8F704700BF3C000020E9
:10019000EFF3058070470000064880470648004797
:1001A000FEE7FEE7FEE7FEE7FEE7FEE7FEE7FEE727
:1001B000FEE7FEE7351B0008ED00000840EA0103FA
:1001C0009B0703D009E008C9121F08C0042AFAD20D
:1001D00003E011F8013B00F8013B521EF9D27047D1
:1001E000064C074D06E0E06840F0010394E8070084
:1001F00098471034AC42F6D3FFF77CFF102E00086E
:10020000302E00082DE9F041164685190F460446A8
:10021000B5F5003F6FD84FF48031C4F307288D4205
:100220001BD201F0DFFFA02001F0B2FF02F002F8C4
:10023000404601F0ADFF01F0FDFFE0B201F0A8FF84
:1002400001F0F8FF002405E0385D01F0A1FF01F0A6
:10025000F1FF641CB442F7D36AE08C424CD201F047
:10026000C1FFA02001F094FF01F0E4FF404601F03F
:100270008FFF01F0DFFFE0B201F08AFF01F0DAFF4B
:100280004FF6FF700026A0EB040805E0B85D01F012
:100290007FFF01F0CFFF761CB045F7D201F0B8FF29
:1002A00001F0E2FF01F0E0FF01F0DEFF01F0DCFF12
:1002B00001F098FFA22001F06BFF01F0BBFF0020CE
:1002C00001F066FF01F0B6FF002001F061FF01F0D0
:1002D000B1FF0026A5F57F453C44FF3D08E0A0198D
:1002E000A0F58030407801F053FF01F0A3FF761CA9
:1002F000B542F4D21CE01DE001F074FFA22001F031
:1003000047FF01F097FF200E01F042FF01F092FF3E
:10031000C4F3074001F03CFF01F08CFF002405E02E
:10032000385D01F035FF01F085FF641CB442F7D35E
:1003300001F06EFF0020BDE8F081FEE7014800F00B
:10034000B1B80000CC030020014800F0ABB80000B9
:1003500088030020014800F0A5B8000044030020F5
:10036000014800F09FB800000003002030B590F86D
:1003700040500124AC40C56B6C6004686360436806
:10038000102B036803D099600068C26030BD9A608A
:100390000068C16030BD704710B54FF480742246CC
:1003A0000A490B4801F0A8F909480068C16841F002
:1003B0001001C16022460749074801F09DF906482F
:1003C0000068C16841F01001C16010BD7C000020D0
:1003D0008002002080010020C002002001680A681D
:1003E00022F00E020A6001680A6822F001020A6027
:1003F00090F84020C36B012101FA02F25A6080F8A4
:100400002110002180F820100846704710B590F8A0
:1004100021100024022903D00421816301243DE03E
:1004200001680A6822F00E020A6001680A6822F078
:1004300001020A601A4A0168914201D1012121E0BA
:10044000174A1432914201D110211BE0144A28327C
:10045000914201D1891515E0114A3C32914201D1F6
:1004600089140FE00E4A5032914202D14FF480318C
:1004700008E00B4A6432914202D14FF4801101E04E
:100480004FF08071064A083A5160012180F821102E
:10049000002180F82010416B01B18847204610BD33
:1004A000080002402DE9F05FC16B0C6801680B6821
:1004B000D0F840C0042202FA0CF2494DDFF824A122
:1004C000494E4A4FDFF828B1DFF828E122422CD00C
:1004D0005A072AD50A68920603D40A6822F0040251
:1004E0000A600168A94201D1042219E0514501D1F5
:1004F000402215E0B14202D14FF4806210E0B942CF
:1005000002D14FF480420BE0594502D14FF48022D2
:1005100006E0714502D14FF4800201E04FF08062A5
:100520002F4908394A60C16A3BE04FF0020808FAD7
:100530000CF818EA040F4FF000094FF0010235D013
:100540005FEA837832D50B689B0605D40B6823F0ED
:100550000A030B6080F821200168A94201D1022220
:1005600019E0514501D1202215E0B14202D14FF4EA
:10057000007210E0B94202D14FF400520BE059452D
:1005800002D14FF4003206E0714502D14FF400125F
:1005900001E04FF00072124908394A6080F820905B
:1005A000816A00291AD0BDE8F05F0847082505FADE
:1005B0000CF5254212D01B0710D50B6823F00E0353
:1005C0000B6090F84010C36B02FA01F1596082632E
:1005D00080F8212080F82090016BE2E7BDE8F09FD1
:1005E000080002401C00024030000240440002406B
:1005F000580002406C00024030B548B308C81549A5
:1006000014221944B1FBF2F18900C16312498163DC
:10061000022141771A6843F6F0718A43D0E9001449
:100620002143D0E902452C43214304692143446915
:100630002143846921431143196000214162816291
:10064000C16201634163012242770177084630BDF0
:10065000012030BDF8FFFDBF0000024070B5044628
:1006600090F82000002501280CD0012084F82000FB
:1006700094F821600020012E06D084F82000022585
:10068000284670BD022070BD022684F82160A06358
:100690002068066826F0010606602046FFF766FE21
:1006A000E06A00282068016802D041F00E0106E0EF
:1006B00021F0040101602068016841F00A01016035
:1006C0002068016841F001010160D9E72DE9F84F88
:1006D000DFF890A100220AF1040B144601274FF025
:1006E0000F090BF1040E00BF0B6807FA04F52B404D
:1006F000AB4274D1DFF870C14E68A6EB0C086645BA
:100700002BD00DDC032E34D005DC36B3012E19D0EE
:10071000022E2FD11BE0112E16D0122E2AD119E055
:10072000B8F5881F19D006DCB8F5803F15D0B8F5AC
:10073000801F1FD111E0B8F5001F0ED0B8F5041FBF
:1007400018D10AE0CA6815E0CA68121D12E0CA682A
:1007500008320FE0CA680C320CE08A682AB1012A1C
:100760004FF0080203D0456104E0042202E0056175
:1007700000E00022FF2B01D8064601E000F104064C
:100780004FEA840501D9A5F12005D6F800C009FA81
:1007900005F82CEA080C02FA05F54CEA050CC6F837
:1007A00000C04D68ED0057D5304DAE6946F00106EA
:1007B000AE61AD6924F0030605F0010500952C4DEE
:1007C00006EB050CDCF80850A6074FEA167809FA84
:1007D00008F6B543274EB04202D1002610E03BE0B8
:1007E000254EB04201D101260AE0244EB04201D18B
:1007F000022605E0224EB04201D1032600E0042685
:1008000006FA08F62E43CCF808604D68DAF8006066
:10081000ED03554601D51E4300E09E432E604D6812
:10082000DBF80060AD035D4601D51E4300E09E434A
:100830002E604D68DEF80060ED02754601D51E435E
:1008400000E09E432E604D68AD020E4D2E6801D52E
:100850001E4300E09E432E60641C102CFFF444AF46
:10086000BDE8F88F000401400000111000100240A4
:100870000000014000080140000C01400010014050
:10088000001401400C040140C2684A40C260704735
:100890000AB1016170470904FBE700000148806864
:1008A0007047000008000020024881680278114467
:1008B0008160704708000020074810B5016841F0CA
:1008C00010010160032000F0B7F8002000F006F8E6
:1008D00000F03EF8002010BD0020024000B50146A7
:1008E00087B00022192000F087F8192000F078F86E
:1008F0001348816941F400618161806905A900F4B0
:1009000000600690684600F03DFA00F071FA0D496B
:100910000D4AB0FBF1F10D48491E0260416040F202
:10092000E7320021C0E90321816000F04BFC10B1E7
:10093000012007B000BD054800F060FCF9E70000A9
:100940000010024040420F00002C014070080020BF
:10095000214808B5816941F001018161816901F097
:1009600001010091C16941F08051C161C06900F08D
:1009700080500090032000F05FF8002211466FF0D5
:100980000B0000F039F8002211466FF00A0000F069
:1009900033F8002211466FF0090000F02DF8002214
:1009A0001146501F00F028F800221146101F00F0D9
:1009B00023F800220F21901E00F01EF800220F21C4
:1009C000501E00F019F80548416821F0E06141F03F
:1009D0000071416008BD00000010024000000140AD
:1009E00000F01F02012191404009800000F1E02049
:1009F000C0F8001170470000F0B40E4B1B680C46A5
:100A0000C3F30223C3F10705042D00D90425191DE2
:100A1000072901D2002300E0DB1E012606FA05F1BA
:100A2000491E214099409E40761E16403143F0BC3D
:100A300001F026B80CED00E0064900F00702086856
:100A40004FF6FF03184040EA0220034A10430860B3
:100A5000704700000CED00E00000FA052DE9F041C0
:100A600086B004004FF0000504D094F82904002655
:100A700020B108E0012006B0BDE8F08184F82864C8
:100A8000204600F04BF8032084F82904206801F088
:100A900094FA04F11001142288466846FFF78EFB91
:100AA00094E80F0001F076FA0021206801F093FA33
:100AB0005FF0010704EB451080F8297000F8285F0B
:100AC0008581C670066146616D1C86610F2DF1D36C
:100AD0005FF0000004EB401181F8296281F82802E0
:100AE000888681F82B62C1F83862C1F83C62401CEC
:100AF000C1F840620F28EDD3142241466846FFF743
:100B00005DFB94E80F0001F049FA84F8246084F852
:100B10002974206801F040FA0020ACE708B50068AD
:100B20000649884208D10648C16941F40001C16103
:100B3000C06900F40000009008BD0000005C0040A7
:100B4000001002402DE9F84305460078354CC007F7
:100B500054D0E0690026C00008D4E06940F080501D
:100B6000E061E069012600F0805000902E480168A5
:100B7000C90512D40168804641F480710160FFF715
:100B80008DFE074605E000BFFFF788FEC01B642806
:100B900023D8D8F80000C005F6D5206A10F44070BC
:100BA00021D0A98801F4407181421CD0206A1F49DC
:100BB000012220F440700A6000220A602062C0070F
:100BC00011D0FFF76BFE074641F2883808E000BFFE
:100BD000FFF764FEC11B414502D90320BDE8F8833D
:100BE000206A8007F4D5206A696820F440700843C1
:100BF00020621EB1E06920F08050E0612878800713
:100C000005D56068A96820F44040084360602878F2
:100C1000C00605D56068E96820F48000084360607C
:100C20000020DBE700100240007000404004424218
:100C30002DE9F047DFF83C8105460E46D8F8000064
:100C400000F00700B0420CD2D8F8001021F00701E4
:100C50003143C8F80010D8F8000000F00700B04297
:100C600063D12878444C800705D56068A96820F0D6
:100C7000F000084360602878C00745D06868012804
:100C800016D02168022816D0890700294DDA61683C
:100C900021F0030101436160FFF700FE6968074628
:100CA00041F2883001290FD00229814619D027E06E
:100CB00021688903E9E78901E7E700BFFFF7EEFD57
:100CC000C11B494501D918E081466068C0F3810025
:100CD0000128F3D118E000BFFFF7E0FDC11B494533
:100CE0000BD86068C0F381000228F5D10CE000BF8A
:100CF000FFF7D4FDC11B494502D90320BDE8F087A9
:100D0000606810F00C0FF3D1D8F80010404601F0E5
:100D10000701B1420BD9016821F00701314301609D
:100D2000006800F00700B04201D00120E6E7287813
:100D3000400705D56068E96820F4E060084360601A
:100D40002878000706D56068296920F4605040EAD9
:100D5000C100606000F05CF86168084AC1F30311EB
:100D6000515CC840064908600020FFF7B7FD00202D
:100D7000C4E700000020024000100240EC2D0008F3
:100D8000140000200F2202600C4A536803F0030392
:100D90004360536803F0F0038360536803F4E06337
:100DA000C36052684FF4E06303EAD2020261044870
:100DB000006800F007000860704700000010024063
:100DC0000020024001480068704700001400002025
:100DD0000448054900684968044AC1F30221515C8E
:100DE000C84070471400002000100240FC2D00088D
:100DF0000448054900684968044AC1F3C221515CAE
:100E0000C84070471400002000100240FC2D00086C
:100E100012A185B00FC98DE80F0014A0144A006814
:100E200004905168134801F00C03042B10D0082BD8
:100E30000ED1C1F38343C9031DF803000AD55168DD
:100E400004AAC1F34041515C0A4A5043B0FBF1F09F
:100E500005B0704708494843FAE70000020304055B
:100E6000060708090A0B0C0D0E0F101001020000F6
:100E70000010024000127A0000093D002DE9F84FF1
:100E800004460078B94DC00748D06868C0F38100B7
:100E9000012807D06868C0F38100022809D168687A
:100EA000C00306D52868800338D5606800286FD055
:100EB00034E06068B0F5803F0BD010B1B0F5A02FE2
:100EC00011D0286820F480302860286820F4802021
:100ED00002E0286840F480302860606888B1FFF73D
:100EE000DDFC064609E0286840F480202860F0E731
:100EF000FFF7D4FC801B642875D828688003F7D5D9
:100F00000CE0FFF7CBFC064605E000BFFFF7C6FC90
:100F1000801B6428F0D828688003F7D42078944E8A
:100F200080074FF001094FF000083BD5686810F0CA
:100F30000C0F07D06868C0F38100022809D16868E7
:100F4000C00306D42868800714D5206901281FD162
:100F500010E02069B0B1C6F80090FFF79FFC07468B
:100F600005E000BFFFF79AFCC01B0228C4D8286820
:100F70008007F7D52868616920F0F80040EAC100D1
:100F800028600FE0C6F80080FFF788FC074606E0FF
:100F9000E9E000BFFFF782FCC01B022823D82868C5
:100FA0008007F7D4207800072CD57248A169D9B101
:100FB000C0F80090FFF772FC074604E0FFF76EFCF4
:100FC000C01B02280FD8686A8007F7D56A484FF41B
:100FD000FA510068B0FBF1F0009000BF0098411E8C
:100FE0000091FAD20EE080E0C0F80080FFF756FCD6
:100FF000074604E0FFF752FCC01B022875D8686A58
:101000008007F7D42078400760D5E8690027C00042
:1010100008D4E86940F08050E861E869012700F0F1
:101020008050009055480168C90513D40168834673
:1010300041F480710160FFF731FC824606E000BF99
:10104000FFF72CFCA0EB0A0064284ED8DBF8000068
:10105000C005F5D5E06801280AD008B1052813D0ED
:10106000286A20F001002862286A20F0040002E0CB
:10107000286A40F001002862E06841F2883B98B19C
:10108000FFF70CFC82460BE0286A40F0040028625F
:10109000EEE700BFFFF702FCA0EB0A0159455AD862
:1010A000286A8007F6D50CE0FFF7F8FB824605E0DA
:1010B000FFF7F4FBA0EB0A0159454CD8286A8007DA
:1010C000F6D41FB1E86920F08050E861E06988B388
:1010D0006968C1F38101022945D00228C6F8608001
:1010E00004D0FFF7DBFB044638E034E0FFF7D6FB23
:1010F000074604E0FFF7D2FBC01B02282BD8286864
:101100008001F7D4206AB0F5803F05D16868A168F6
:1011100020F4003008436860D4E908010843696896
:1011200021F4741108436860C6F86090FFF7B6FBBD
:10113000044606E015E000BFFFF7B0FB001B0228E5
:1011400009D828688001F7D50BE000BFFFF7A6FBA0
:10115000001B022802D90320BDE8F88F286880010F
:10116000F4D40020F8E70120F6E700000010024068
:1011700000004242800442421400002000700040FF
:101180004FF0E0210428086903D020F00400086132
:10119000704740F00400FAE710B5401EB0F1807FC0
:1011A00001D3012010BD4FF0E02460610F216017D2
:1011B00000F066FC0020A06107202061002010BD27
:1011C0007047704710B5040003D094F83D0010B18B
:1011D00007E0012010BD002084F83C00204600F00C
:1011E0000CF8022084F83D00211D206800F0CCFCA2
:1011F000012084F83D00002010BD70470168CA68D6
:1012000042F00102CA600068016841F0010101601A
:1012100000207047704770B50446006801694FF0C0
:101220000005C943890715D4C168C943890711D48A
:10123000E91E01610120207720688069800720462F
:1012400002D0FFF7E7FF04E000F098F8204600F036
:1012500096F8257720680169C943490717D4C16802
:10126000C943490713D46FF00401016102202077BC
:101270002068806910F4407F204602D0FFF7CAFF43
:1012800004E000F07BF8204600F079F8257720682C
:101290000169C943090716D4C168C943090712D4B3
:1012A0006FF008010161042020772068C069800781
:1012B000204602D0FFF7AEFF04E000F05FF82046C2
:1012C00000F05DF8257720680169C943C90617D485
:1012D000C168C943C90613D46FF010010161082029
:1012E00020772068C06910F4407F204602D0FFF7C5
:1012F00091FF04E000F042F8204600F040F8257726
:1013000020680169C943C90708D1C168C943C90731
:1013100004D1891E0161204600F032F8206801697D
:10132000C943090609D4C168C943090605D46FF049
:10133000800101612046FFF743FF20680169C9432E
:10134000490609D4C168C943490605D46FF0400174
:101350000161204600F01EF820680169C943890632
:101360000BD4C168C943890607D46FF0200101611D
:101370002046BDE87040FFF724BF70BD704770473E
:1013800000680349884201D1FFF78EBA7047000018
:10139000002C0140704710B504460068416994F87C
:1013A0003920C1F3C011212A0BD151B1416921F07B
:1013B00080014161206B08B1FFF710F8204600F072
:1013C00093FC2068416994F83A20C1F38011222AE5
:1013D0000BD151B1416921F040014161606B08B10D
:1013E000FEF7FCFF204600F071FC002010BD7047A6
:1013F00070B5026804461068D168536910F00F0F89
:1014000051D003F0010501F4907635435DD0C20759
:1014100005D0CA0503D5E26B42F00102E263420740
:1014200005D5DA0703D0E26B42F00202E2638207DD
:1014300005D5DA0703D0E26B42F00402E26302074B
:1014400005D5DA0703D0E26B42F00802E263E26BF3
:10145000002A34D0800604D5880602D5204600F044
:101460004CFC20684069E16BC0F3801001F008017A
:101470000143204624D000F029FC20684169490638
:101480001AD5416921F040014161606BA0B11B494F
:101490004163606BFEF7BAFF002810D0606B416BB0
:1014A000BDE87040084783060FD58B060DD5204652
:1014B000BDE8704000F021BC2046FFF798FF70BDEA
:1014C000FFF795FF0020E06370BD030606D50B060D
:1014D00004D52046BDE8704000F012BD4006F3D5AB
:1014E0004806F1D5D168204621F04001D160202185
:1014F00084F8391000F08EF970BD0000F51B00086B
:1015000070B5040004D094F83900002510B106E04D
:10151000012070BD84F83850204600F023F82420C4
:1015200084F839002068C16821F40051C160204668
:1015300000F02EFC2068016921F4904101612068CF
:10154000416921F02A0141612068C16841F40051DC
:10155000C160E563202084F8390084F83A00002057
:1015600070BD00002DE9F047044603685848DFF8D5
:101570005CC10221032206150025802786B04FF0AA
:10158000100A4FF4805963454BD1836943F480437B
:1015900083618069DFF83C8100F480400490080298
:1015A000CDE90001039269464046FFF78FF8CDE987
:1015B0000065694640460295FFF788F8474E464861
:1015C000B846C6E90005C6E9025735617561C6E946
:1015D00006594F463046FFF70FF818B1932140A047
:1015E00000F036FD666374623C4E3B484436143866
:1015F000C6E9025835617561C6E9000AC6E90657B1
:101600003046FEF7F9FF18B1A32135A000F020FD08
:1016100026630022052125207462FFF7EDF92520BD
:101620004FE0DFF8CCC063454DD1C36943F480235C
:10163000C361C069CDE9006100F48020CDE90320D9
:101640002C4E69463046FFF741F8F014CDE900050D
:10165000694630460295FFF739F8204E1E48883615
:101660002838C6E90005C6E9025735617561C6E943
:101670000659B8464F463046FEF7BEFF18B1D12195
:1016800017A000F0E5FC66637462144E1248CC3675
:101690003C38C6E9025835617561C6E9000AC6E9F9
:1016A00006573046FEF7A8FF18B1E1210CA000F064
:1016B000CFFC26630022052127207462FFF79CF9E6
:1016C0002720FFF78DF906B0BDE8F087003801400C
:1016D00000100240000801405800024000030020B2
:1016E0002E2E2F5372632F75736172742E63000058
:1016F00000480040000C0140F8B5044690F83A005C
:1017000020283CD1C1B3BAB394F83800012836D0B0
:10171000012084F83800A162A2850025E56322201B
:1017200084F83A00636B17489862636B1648D86276
:10173000636B16481863606B134645630846666B17
:10174000216802463046091DFEF788FF20680168BF
:101750004168009184F83850C16841F48071C160DB
:101760002068416941F0010141612068416941F00F
:10177000400141610020F8BDFFE70120FBE70220A6
:10178000F9E700004F1C00088B1C0008051C00082E
:101790007047704770B5044690F83900202830D162
:1017A00069B362B394F8380001282AD0012084F884
:1017B00038002162A284E2840025E563212084F8B8
:1017C0003900236B10489862236B1048D862236B52
:1017D0000F481863206B134645632668206B321D43
:1017E000FEF73CFF21686FF04000086084F8385035
:1017F0002068416941F080014161002070BD0120F5
:1018000070BD022070BD0000951C0008C31C0008BC
:10181000051C000870477047FEE70000154808B532
:10182000416941F0010141614069002200F001007D
:10183000009005210C20FFF7DFF80C20FFF7D0F80F
:10184000002205210D20FFF7D7F80D20FFF7C8F87B
:10185000002205210E20FFF7CFF80E20FFF7C0F879
:10186000002205210F20FFF7C7F8BDE808400F2030
:10187000FFF7B6B80010024000B585B01422064943
:101880006846FEF79BFC0021684600F024FD0349F2
:10189000086005B000BD0000D82D00080000002041
:1018A0002DE9F043374885B0816941F0100181612D
:1018B000816901F010010491816941F02001816189
:1018C000816901F020010491816941F00401816185
:1018D000816901F004010491816941F0080181618D
:1018E0008069012200F00800274E5403049021462D
:1018F0003046FEF7CDFFDFF89480012202214046FA
:10190000FEF7C6FFDFF888900122F8214846FEF76F
:10191000BFFF009401240325694630460194CDE9B8
:101920000245FEF7D3FE1B480026CDE9004069467C
:1019300002964046FEF7CAFE0227CDE900746946CA
:101940004046CDE90245FEF7C1FE0095CDE90164B0
:1019500069464846FEF7BAFE1820CDE90004CDE9F5
:10196000024769464846FEF7B1FEE020CDE9000493
:1019700069464846CDE90245FEF7A8FE05B0BDE838
:10198000F0830000001002400010014000080140F8
:10199000000C0140000021100D4810B50B490160FA
:1019A0004FF4E1314160002181600C22C160C0E947
:1019B00004128161C161FFF7A3FD002805D0BDE8D5
:1019C0001040552103A000F043BB10BD003801407A
:1019D000800200202E2E2F5372632F757361727454
:1019E0002E6300000D4810B50B4901604FF4E13142
:1019F0004160002181600C22C160C0E90412816154
:101A0000C161FFF77DFD002805D0BDE810406821C9
:101A100003A000F01DBB10BD00480040C002002024
:101A20002E2E2F5372632F75736172742E63000014
:101A30000D4810B50B490160082141600221816009
:101A40000321C16000218161C1610162FFF706F8D5
:101A5000002805D0BDE81040492104A000F0F8BAE4
:101A600010BD0000005C0040100400202E2E2F53FB
:101A700072632F7573622E6300000000FEE77047EB
:101A80000907090E002806DA00F00F0000F1E02037
:101A900080F8141D704700F1E02080F800147047B2
:101AA00000F0C0FF034D4FF4005421462846FEF7D6
:101AB000EBFEFAE70010014000F003BC30B593B034
:101AC00001210804CDE900100024029402250491AC
:101AD000CDE907504FF4E01009906846FFF7CEF9C2
:101AE00000B1FEE70F20CDE90A054FF48060CDE993
:101AF0000C4002210AA80E94FFF79AF800B1FEE705
:101B000010200F9012940FA8FFF71CF800B1FEE709
:101B1000FFF758F94FF47A71B0FBF1F0FFF73CFB97
:101B20000420FFF72DFB00220F21501EFEF764FF5B
:101B300013B030BD0D48016841F0010101604168FA
:101B40000B4A1140416001680A4A11400160016876
:101B500021F480210160416821F4FE0141604FF4CD
:101B60001F0181600449C0030860704700100240F3
:101B70000000FFF8FFFFF6FE08ED00E00148FFF768
:101B80004ABB000070080020F0B50268164B174CE5
:101B9000174D4FF08047984205D0B84203D0A0427D
:101BA00001D0A84203D122F070064A68324398421D
:101BB00005D0B84203D0A04201D0A84203D122F4FC
:101BC0004074CA68224322F080044A6922430260BA
:101BD0008A68C2620A688262984201D10969016317
:101BE00001214161F0BD0000002C014000040040D3
:101BF0000008004010B5406A0021C185C184FFF78C
:101C0000F6FB10BD70B5446A2068406994F839103D
:101C1000C0F3C0100025212904D118B1E584204665
:101C200000F062F82068406994F83A10C0F3801020
:101C3000222904D118B1E585204600F047F8E06B71
:101C400040F01000E0632046FFF7D1FB70BD10B5F7
:101C50000146406A09680968890613D40021C185D4
:101C60000168CA6822F48072CA6001684A6922F079
:101C700001024A6101684A6922F040024A6120215A
:101C800080F83A10FFF784FD10BD10B5406AFFF7E9
:101C900080FD10BD10B50146406A096809688906D3
:101CA0000CD40021C18401684A6922F080024A6193
:101CB0000068C16841F04001C16010BDFFF7AAFD96
:101CC00010BD10B5406AFFF7A6FD10BD0168CA68D7
:101CD00022F49072CA6001684A6922F001024A61E6
:101CE000202180F83A1070470168CA6822F0C002CB
:101CF000CA60202180F83910704710B590F83A106A
:101D0000222901D0022010BD8168B1F5805F11D079
:101D10000169002901681FD0496801F07F03816AC9
:101D20004A1C82620B70C18D491E0904090CC185D1
:101D300018D02BE00269816A002A0268526805D037
:101D4000D2B20A80816A491C8162ECE7C2F30802C0
:101D50000A80816A891CF7E74A68816A4B1C8362A2
:101D60000A70E0E70168CA6822F02002CA600168D0
:101D7000CA6822F48072CA6001684A6922F00102CE
:101D80004A61202180F83A10FFF702FD002010BDC3
:101D90002DE9F041044600680169E26821F44051F0
:101DA000114301612169A068084361690843216802
:101DB000CA6841F20C639A430243CA6020684169D1
:101DC000A26921F44071114341614C4920686425A6
:101DD000322688423CD1FFF70BF800EBC00101EB43
:101DE000001061688900B0FBF1F7FFF701F800EB24
:101DF000C00101EB00106168B0468900B0FBF1F052
:101E0000B0FBF5F06FF01801484307EB800106EBDB
:101E10000110B0FBF5F000F0F006FEF7E9FF00EB73
:101E2000C00101EB001061688900B0FBF1F0B0FB6C
:101E3000F5F006EB0016FEF7DBFF00EBC00101EB4F
:101E4000001061688900B0FBF1F7FEF7D1FF3BE0BD
:101E5000FEF7BEFF00EBC00101EB001061688900D6
:101E6000B0FBF1F7FEF7B4FF00EBC00101EB00108F
:101E70006168B0468900B0FBF1F0B0FBF5F06FF09F
:101E80001801484307EB800106EB0110B0FBF5F0A9
:101E900000F0F006FEF79CFF00EBC00101EB001024
:101EA00061688900B0FBF1F0B0FBF5F006EB0016BD
:101EB000FEF78EFF00EBC00101EB001061688900A6
:101EC000B0FBF1F7FEF784FF00EBC00101EB00105F
:101ED00061688900B0FBF1F0B0FBF5F06FF018011C
:101EE000484307EB800108EB0110B0FBF5F02168D7
:101EF00000F00F0030448860BDE8F08100380140F8
:101F000090F83910212901D0022070478168B1F57D
:101F1000805F016A0BD04A1C026202680978516036
:101F2000C18C491E0904090CC1840ED017E0098830
:101F30000268C1F30801516001690029016A02D0F9
:101F4000491C0162ECE7891CFBE70168CA6822F0C2
:101F50008002CA600068C16841F04001C160002091
:101F60007047000010B5044800F038F8BDE8104094
:101F70000148FFF73DBA00008002002010B5044878
:101F800000F02CF8BDE810400148FFF731BA00001E
:101F9000C0020020002070470020704700B50121DA
:101FA000A0F840100021A0F84010A0F84410A0F8BC
:101FB000501000F009F8002000BD30F8401F21F457
:101FC0003D4101800020704730F8401F41F43F41FF
:101FD00001800020704700207047FEE738B5016897
:101FE00004460868C043C0062AD4086848680090C0
:101FF000086848682046FFF7CEF91249012002021E
:102000008C420AD1803109684968C1F580730E4954
:102010004B8001F8040B0B480EE00A4940318C421A
:102020000ED1C83109684968C1F5807307494B80F2
:1020300001F8040B03484030BDE83840FFF75CBBB3
:1020400038BD000080020020780000207C010020C4
:10205000FEE700000FB4054B10B503A9044A02982F
:1020600000F017F810BC5DF814FB000069210008AF
:102070000400002002E008C8121F08C1002AFAD19B
:1020800070477047002001E001C1121F002AFBD1F8
:1020900070472DE9F84F9946924688460546002735
:1020A00006E025280AD051464A4690476D1C7F1C01
:1020B00028780028F5D13846BDE8F88F002315F8B8
:1020C000011F18462E2915D115F8011F04232A29AE
:1020D0000DD06FF02F022978A1F13004092C09D816
:1020E00000EB800002EB400008446D1CF3E758F859
:1020F000040B6D1C2A78002ADDD0632A07D0732ACE
:102100000FD0104651464A4690477F1C2AE018F8E7
:10211000042B8DF8002000218DF801106E4601215E
:1021200003E058F8046B4FF0FF315A074FF00004FA
:1021300001D409E0641C84420BDA8C42FADB325D84
:10214000002AF7D105E0641C8C42FCDB305D0028DE
:10215000F9D1274404E016F8010B51464A4690474E
:10216000641EF8D26D1CA3E738B504468DF8000054
:10217000064800680168C9434906FBD40122694644
:102180000248FFF707FB204638BD00008002002010
:102190002DE9F0470025124C06464FF4000A4FF097
:1021A00040084FF480098027300601D5276001E000
:1021B000C4F800A000F058F8C4F8008000F054F80B
:1021C000C4F80090072D00D127607006060E00F0BD
:1021D0004BF86D1CEDB2082DE6D3BDE8F08700008A
:1021E000100C014010B5094C802020604020206078
:1021F00000F03AF84FF40000206000F035F84FF49A
:1022000080002060BDE8104000F02EB8100C0140A6
:1022100010B5074C4FF4000020604020206000F013
:1022200023F880202060BDE8104000F01DB80000B9
:10223000100C014070B50B4D8020286040202860B4
:1022400000F012F8074808380068000601D501249C
:1022500000E000244FF48000286000F005F82046DC
:1022600070BD0000100C01400020401CC0B22828A6
:10227000FBD37047FEF720FBFFF720FCFFF710FBB6
:10228000FFF7CCFAFFF788FBFFF7ACFBFFF7D0FBBB
:10229000FEF782F8FFF7F0FA00F00EF8FEE70146CD
:1022A0000020842900D0C81C704710B500B9012057
:1022B00000F03CFB002010BD10B500F0D3FB002067
:1022C00010BD10B500F0B4FC012803D0BDE81040EB
:1022D00000F06CBC10BD3EB504460D46B0F90800D8
:1022E000FFF7DDFF02A9CDE90001208A2B4682B26B
:1022F000D4E9001000F070FC012801D000203EBDA0
:1023000002983EBD2DE9F041184C0F460546E6689F
:102310002068001D00F012FA38B9206890F82C10DF
:1023200001208840216981432161681C07D137B1B0
:102330002168BDE8F0410E48091D00F037BA206859
:102340003544B5424560216805D2A06BBDE8F04137
:10235000091D00F013BA606B091D00F00FFAA06AA6
:10236000854200D2A562BDE8F08100003C0000205B
:102370008C1500202DE9F041054600F023FA2E4C83
:10238000A068401CA06020682C4F10B1606940B369
:102390002DE02560A068012829D1002606EB8600E3
:1023A00007EB800000F0DCF9761C072EF6D32348FB
:1023B0008C3000F0D5F92148A03000F0D1F91F4849
:1023C000B43000F0CDF91D48C83000F0C9F91B4801
:1023D000DC3000F0C5F919488C3060631430A0631C
:1023E00005E02068E96AC06A884200D82560606A12
:1023F000401C6062E96A0120226988401043206124
:1024000001EB810007EB8000291D00F0CFF900F0FF
:10241000F9F9606900280CD02068E96AC06A88422E
:1024200007D207494FF080500860BFF34F8FBFF3CA
:102430006F8FBDE8F08100003C000020B014002048
:1024400004ED00E070B5114E114C17E000F03EFBBA
:102450003068B8B100F05EFC00F0B4F9F068C5680F
:10246000281D00F06BF9A068401EA0606068401E47
:10247000606000F0C7F9284600F00CF8606800289A
:10248000E4D170BD00F046FCF8E7000078150020AC
:102490003C00002010B50446006B00F0C7F9204650
:1024A000BDE8104000F0C2B910484FF44061420747
:1024B00006D0C01D0D4920F00700411AC1F540614A
:1024C0000B4A00230144C2E900030839103A21F005
:1024D000070111604B600B600B1AC0E90013936099
:1024E0004FF000405360D06070470000B0080020FB
:1024F00028000020074C4FF08056074DFFF7A2FF41
:1025000020680128FAD92E60BFF34F8FBFF36F8F79
:10251000F4E70000B014002004ED00E02DE9F047DE
:102520009A46DDE9098481466FF00303206B03EBD3
:1025300082021044089D20F00706700707D0502043
:1025400080F31188BFF34F8FBFF36F8FFEE723181F
:102550000A5C83F834200A5C12B1401C1028F6D3C0
:10256000002784F84370072D00D30625E562C4E9EF
:102570001157201D00F0FFF804F1180000F0FBF8DF
:102580002461C5F107006462A061E76484F85070BB
:1025900052464946304600F0BFF82060B8F1000FBF
:1025A00001D0C8F80040BDE8F087000030B51149FF
:1025B00000E011460A688242FBD34B685C188442F3
:1025C00003D1406818444860084643681C18944288
:1025D00009D1084C103C2468A24209D052681A4420
:1025E00042600A6812680260814200D0086030BD13
:1025F0000460F9E7280000200648416B096829B10A
:10260000416BC968C9684968816270474FF0FF3102
:10261000FAE700003C00002008484068401C4FF0EA
:10262000500080F3118804D0BFF34F8FBFF36F8F3A
:10263000FEE7BFF34F8FBFF36F8FFEE73000002040
:102640002DE9F0410546002700F040FA314E306890
:1026500008B9FFF729FFF06805424BD1C5B308352B
:1026600068070ED005F00700C0F1080005446807B0
:1026700007D0502080F31188BFF34F8FBFF36F8FC7
:10268000FEE72DB37068854234D8224810300146E9
:102690000C6801E020460C466168A94202D221681C
:1026A0000029F7D131688C4224D007682168016085
:1026B00060680837411B10290FD96019420708D0FC
:1026C000502080F31188BFF34F8FBFF36F8FFEE769
:1026D00010E041606560FFF769FF61687068401A4B
:1026E0007060B268904200D2B060F0680143002090
:1026F000C4E9000100F00EFB780707D0502080F3FA
:102700001188BFF34F8FBFF36F8FFEE73846BDE8E8
:10271000F08100001800002010B5031F4FF08074F6
:102720001C601B1F21F001011960191F024B0B6077
:10273000143940380A6010BD19260008D0E901326A
:1027400001699A60D0E901235A604A68824201D146
:1027500082684A60002202610868401E0860704773
:1027600000F108014FF0FF32C0E90112C1600161C0
:1027700000210160704700210161704730B50B688E
:102780005A1C02D000F1080202E0026904E022466D
:10279000546825689D42FAD953684B6099608A60F5
:1027A000516008610168491C016030BD42684A609F
:1027B00093688B6093685960916008610168491C57
:1027C00001607047502080F31188BFF34F8FBFF333
:1027D0006F8F0A494868401C486001280CD108489E
:1027E000006810F0FF0F07D0502080F31188BFF36E
:1027F0004F8FBFF36F8FFEE770470000300000205F
:1028000004ED00E00849486828B1401E486001D145
:1028100080F311887047502080F31188BFF34F8FE9
:10282000BFF36F8FFEE700003000002070B5002876
:1028300027D0144DA0F108046168E868014207D16F
:10284000502080F31188BFF34F8FBFF36F8FFEE7E7
:1028500022683AB1502080F31188BFF34F8FBFF345
:102860006F8FFEE78143616000F030F9606869684E
:10287000084468602046FFF799FEBDE8704000F00C
:1028800049BA70BD1800002006484FF47A710068FC
:10289000B0FBF1F14FF0E020491E416107210161D9
:1028A00070470000140000204FF47A7403A0FFF773
:1028B000D1FB2046FFF7F9FCF8E700004743303032
:1028C000310D0A000EB54FF4FA6441F288350BA0C1
:1028D000FFF7C0FB0A220DA11046FDF793FC20462E
:1028E000FFF7E3FC0CA207CA8DE8070069460DA0BC
:1028F000FFF7B0FB2846FFF7D8FCE8E7B2E2CAD4FE
:102900003234434D31300D0A000000003031323393
:1029100034353637383900003938373635343332C4
:102920003130000025730D0A0000000010B50200D0
:1029300014D00F48006B38B1502080F31188BFF3DA
:102940004F8FBFF36F8FFEE700F0C0F800211046F5
:10295000FFF7D8FC00F0DEF9002807D105494FF059
:1029600080500860BFF34F8FBFF36F8F10BD000022
:102970003C00002004ED00E070B50546FFF722FFA3
:10298000254C05B92568281DFFF7D8FE58B9E86A17
:10299000224A00EB800152F8211021B90121814027
:1029A000206988432061A86A18B105F11800FFF773
:1029B000C5FE606A401C60622068854208D11748E5
:1029C000291DC830FFF7F2FE6068401C606007E018
:1029D000A068401EA0602846FFF75CFDFFF70CFED4
:1029E000FFF710FF6069002814D02068854211D1DC
:1029F000206B38B1502080F31188BFF34F8FBFF3A5
:102A00006F8FFEE706494FF080500860BFF34F8F8D
:102A1000BFF36F8F70BD00003C000020B014002099
:102A200004ED00E07CB5002501242B46802209A19D
:102A30000A48CDE9004500F0CFF80023802205A127
:102A40000748CDE9004500F0C7F8BDE87C4000200C
:102A5000FFF792BF765461736B310000A92800081C
:102A6000C52800081CB515480024CDE900402346C0
:102A7000802213A1144800F0AFF8012809D0401CAF
:102A80001AD1502080F31188BFF34F8FBFF36F8F9F
:102A9000FEE7502080F31188BFF34F8FBFF36F8F95
:102AA00006484FF0FF312C38816201214161C4603A
:102AB000BDE81C4000F040B81CBD000068000020CC
:102AC00049444C4500000000F52400080248016B11
:102AD000491C0163704700003C0000201448016B52
:102AE00011B10121C16170470021C1610169B1FAD1
:102AF00081F1C1F11F0101EB81020E4951F8223031
:102B00006BB101EB820101F108034A6852684A6027
:102B10009A4201D152684A60D168016070475020E2
:102B200080F31188BFF34F8FBFF36F8FFEE7000074
:102B30003C000020B01400201CB519490878019011
:102B4000FF20087008788DF800009DF80000154AF5
:102B500000F0500010700720906005E09DF80030F4
:102B60005B008DF80030401E9DF800301B06F5D448
:102B7000000200F4E0609060019808700A48016863
:102B800041F470010160016841F070410160FFF79C
:102B90007BFE00205060FDF7C5FA00201CBD000040
:102BA00000E400E03000002020ED00E010B55020EF
:102BB00080F31188BFF34F8FBFF36F8F00F046F89B
:102BC00018B104494FF080500860002080F311884C
:102BD00010BD000004ED00E02DE9FF5F8346DDE954
:102BE0000E87994616468A469000FFF729FD050094
:102BF0001AD05420FFF724FD040012D025630021D1
:102C0000CDE90241CDE900874B4632465146584650
:102C1000FFF784FC2046FFF7ADFB012004B0BDE8C0
:102C2000F09F2846FFF702FE4FF0FF30F6E7000066
:102C30000548416919B1006B18B1002070470120A7
:102C400070470220704700003C0000202DE9F04151
:102C50002E4C0027206B40B1A069401CA061E069A8
:102C600000B101273846BDE8F081E668761CE660D1
:102C700013D1606B006838B1502080F31188BFF326
:102C80004F8FBFF36F8FFEE7606BA16B6163A06333
:102C9000206A401C2062FFF7AFFCA06ADFF870805A
:102CA000864209D3606B006880B1606BC068C568FC
:102CB000686886420DD2A0622068C06A00EB80017D
:102CC00058F821000128CAD90127C8E74FF0FF3082
:102CD000F1E7281DFFF732FDA86A18B105F11800C9
:102CE000FFF72CFDE86A012122698140114321612F
:102CF00000EB800108EB8100291DFFF757FDE86A12
:102D00002168C96A8842CDD30127CBE73C00002067
:102D1000B01400202DE9F0472C4D00242746286BE5
:102D200038B1FFF74FFD286B401E2863286B40B178
:102D300046E0502080F31188BFF34F8FBFF36F8FB1
:102D4000FEE7A968224E0120D1B3A6F1B40980465E
:102D50003068E8B1F068C46804F11800FFF7EEFCD1
:102D6000201DFFF7EBFCE06A2A6908FA00F1114325
:102D7000296100EB800109EB8100211DFFF716FDA1
:102D8000E06A2968C96A8842E2D3C5F81C80DFE797
:102D90000CB1FFF731FCAC6944B14646FFF756FF72
:102DA00000B1EE61641EF9D10020A861E86938B174
:102DB0000849012738070860BFF34F8FBFF36F8FB3
:102DC000FFF720FD3846BDE8F08700003C000020FA
:102DD0006415002004ED00E0042E0008A11A00088C
:102DE0000000000000000000800000000000000063
:102DF00000000000010203040607080900000000AB
:102E000001020304414C4C5F696E697400000000CC
:102E1000302E000800000020780000007420000818
:102E2000A82E00087800002028190000842000083F
:102E30000000000000000000010000001000000081
:102E40000000000000A24A04000000000000000092
:102E50000000000000000000000000000000000072
:102E600000000000AAAAAAAA0000000000000000BA
:102E70000000000000000000000000000000000052
:102E80000000000000000000000000000000000042
:102E90000000000000000000000000000000000032
:082EA00000000000000000002A
:04000005080000ED02
:00000001FF
